:020000040800F2
:1000000030040120DD010008E5010008E7010008D7
:10001000E9010008EB010008ED0100080000000004
:10002000000000000000000000000000EF010008D8
:10003000F101000800000000F30100085D02000863
:10004000F7010008F7010008F7010008F7010008B0
:10005000F7010008F7010008F7010008F7010008A0
:10006000F7010008F7010008F7010008F701000890
:10007000F7010008F7010008F7010008F701000880
:10008000F7010008F701000825020008F701000841
:10009000F7010008F7010008F7010008F701000860
:1000A000F7010008F7010008F7010008F701000850
:1000B000F7010008A5030008F7010008F701000890
:1000C000F7010008F7010008F7010008F701000830
:1000D000F7010008F7010008F7010008F701000820
:1000E000F7010008F7010008F7010008F701000810
:1000F000F7010008F7010008F7010008F701000800
:10010000F7010008F7010008F7010008F7010008EF
:10011000B9030008F7010008F7010008F70100081B
:10012000F7010008F7010008F7010008F7010008CF
:10013000F7010008F7010008F7010008F7010008BF
:10014000F7010008F7010008F7010008F7010008AF
:10015000F7010008F7010008F7010008F70100089F
:10016000F7010008F7010008F7010008F70100088F
:10017000F7010008F7010008F7010008000000007F
:10018000F7010008F7010008F7010008F70100086F
:10019000F7010008F7010008F7010008F70100085F
:1001A000F7010008F7010008F7010008F70100084F
:1001B000F7010008F7010008F7010008F70100083F
:1001C000F7010008F7010008DFF80CD000F018F87C
:1001D00000480047450400083004012006488047D5
:1001E00006480047FEE7FEE7FEE7FEE7FEE7FEE71C
:1001F000FEE7FEE7FEE7FEE741030008C90100084D
:10020000064C074D06E0E06840F0010394E8070063
:1002100098471034AC42F6D3FFF7DAFF68060008BF
:10022000880600080A480068092806D108481830DE
:10023000006800B20749088009E0054800680E28F8
:1002400005D103481830006800B2034908807047A0
:1002500034220140160001201800012007480088C0
:10026000401C00B2054908800846B0F90000B0F50E
:10027000FA6F01DD0020088070470000280001208F
:1002800070B500200022022300240221274D2D6892
:1002900005F00C0020B1042806D0082834D107E06E
:1002A000234D244E356033E0234D224E35602FE040
:1002B0001E4D2D1F2D68C5F380541C4D2D1F2D681C
:1002C00005F03F0154B11C4DB5FBF1F5174E361F3B
:1002D0003668C6F3881605FB06F209E0144DB5FB37
:1002E000F1F5124E361F3668C6F3881605FB06F286
:1002F0000E4D2D1F2D68C5F301456D1C6B00B2FB23
:10030000F3F50C4E356003E0094D0A4E356000BF31
:1003100000BF064D2D68C5F30315084E705D054DF1
:100320002D68C540034E356070BD0000083802409E
:100330000024F4002C00012040787D0150060008C4
:100340001448006840F470001249086012480068C0
:1003500040F001001049086000200F490831086092
:100360000D4800680D4908400B4908600C48091DFC
:100370000860081F006820F48020091F0860002022
:1003800005490C3108604FF000600249803908606F
:100390007047000088ED00E000380240FFFFF6FEE5
:1003A000103000240348006820F001000149086073
:1003B00070470000100400400548006800F020006D
:1003C00028B103480830006800B20249088070472D
:1003D0001C4C00400A000120002809DB00F01F022D
:1003E000012191404209920002F1E022C2F800117D
:1003F000704700000948006840F080400849C1F893
:10040000080200BF05480838006800F002000449EF
:10041000C1F800020128F5D0704700000822014011
:100420000020014002E008C8121F08C1002AFAD1CA
:1004300070477047002001E001C1121F002AFBD164
:10044000704700007248006840F02700704908605B
:10045000704800684AF2020108436E4908606E481D
:1004600008626E48006840F002006C490860022093
:100470006A49203108606A4800686A49084068494A
:1004800008606948006840F47C6067490860FFF7CD
:10049000F7FE664800684FF47A72B0FBF2F1481E2E
:1004A000B0F1807F00D31BE0481E4FF0E022506186
:1004B00050170F22002804DB13071C0E5C4B1C5442
:1004C00006E013071D0E5B4B00F00F04241F1D55A3
:1004D00000BF00204FF0E02290610720106100BFB4
:1004E0004B481030006840F4002049491031086042
:1004F00040F28360504908604F480C38006840F073
:100500002C004D490C3908600846006840F0010095
:1005100008603420FFF760FF3D481430006840F465
:1005200080603B49143108604448006840F0200076
:100530004349C1F804020846D0F8080240F480603C
:10054000C1F808020846D0F8080240F001003B4913
:10055000091D08601220FFF73FFF2D48103000688A
:1005600040F002002A49103108600806406940F056
:100570000100090648610F203249086031481C38E3
:10058000006840F001002F491C39086044F62060E3
:100590002C49091D08602B480838006841F21111E8
:1005A000084328490839086046F260002549103997
:1005B0000860091D08604FF4FF7022490C31086083
:1005C000091D0860091D08601E482838006840F0B1
:1005D00001001C49283908601D20FFF7FDFE16E0C8
:1005E0000920164930310860FFF704FF0E20144936
:1005F000C1F83402FFF7FEFE1348B0F900001149BC
:100600000C3108601148B0F90000091D0860E7E7E7
:10061000303802400000024008000022000402407E
:1006200000080240FCFFFF0F001402402C000120D4
:1006300000E400E018ED00E00C4C00400422014012
:10064000002001402804004016000120180001206D
:100650000000000000000000010203040607080972
:1006600000000000010203048806000800000120C9
:100670003000000024040008B80600083000012003
:1006800000040000340400083100000000000000F5
:10069000000000000000000000000000000000005A
:1006A00000000000CDCC4C3D000000000000000028
:0806B000000000000024F4002A
:04000005080001DD11
:00000001FF
